:020000040800F2
:1000000018210020650200086D210008831F0008E8
:10001000692100080B050008912500080000000078
:10002000000000000000000000000000CD010008FA
:100030002105000800000000110200082D2400081E
:100040007F0200087F0200087F0200087F0200088C
:100050007F0200087F0200087F0200087F0200087C
:100060007F0200087F0200087F02000811050008D7
:100070007F0200087F0200087F0200087F0200085C
:100080007F0200087F0200087F0200087F0200084C
:100090007F0200087F0200087F0200087F0200083C
:1000A0007F020008E52400087F0200087F020008A4
:1000B0007F0200087F0200087F0200087F0200081C
:1000C0007F0200087F0200087F0200087F0200080C
:1000D0007F0200087F0200087F0200087F020008FC
:1000E0007F0200087F0200087F0200087F020008EC
:1000F0007F0200087F0200087F0200087F020008DC
:100100007F0200087F0200087F0200087F020008CB
:100110007F0200087F0200087F0200087F020008BB
:100120007F0200087F0200087F0200087F020008AB
:1001300000F002F800F03AF80AA090E8000C8244BF
:100140008344AAF10107DA4501D100F02FF8AFF29C
:10015000090EBAE80F0013F0010F18BFFB1A43F0A5
:10016000010318475045000070450000103A24BFB5
:1001700078C878C1FAD8520724BF30C830C144BF0C
:1001800004680C607047000000230024002500264E
:10019000103A28BF78C1FBD8520728BF30C148BFEA
:1001A0000B6070471FB51FBD10B510BD00F045F9BD
:1001B0001146FFF7F7FF02F013FA00F063F903B4FA
:1001C000FFF7F2FF03BC00F06BF90000224B196847
:1001D0000868B0E8F00F80F30988BFF36F8F4FF025
:1001E000000080F311884EF00D0E704700000000F3
:1001F00006480068006880F3088862B661B6BFF3FD
:100200004F8FBFF36F8F00DF00BF00BF08ED00E02E
:10021000EFF30980BFF36F8F0F4B1A6820E9F00FDF
:10022000106008B54FF0500080F31188BFF34F8F76
:10023000BFF36F8F03F024FB4FF0000080F31188B1
:10024000BDE8084019680868B0E8F00F80F3098835
:10025000BFF36F8F704700BF2C000020EFF30580C5
:10026000704700000948804709480047FEE7FEE75D
:10027000FEE7FEE7FEE7FEE7FEE7FEE7FEE7FEE756
:1002800004480549054A064B70470000E32400086E
:1002900031010008181B002018210020181D002023
:1002A000181D0020032A40F2308010F0030C00F0EB
:1002B000158011F8013BBCF1020F624498BF11F8A0
:1002C00001CB00F8013B38BF11F8013BA2F1040259
:1002D00098BF00F801CB38BF00F8013B11F00303D1
:1002E00000F05780083AC0F0088051F8043B083A03
:1002F00051F804CBA0E80810F5E7121D5CBF51F8D7
:10030000043B40F8043BAFF30080D20724BF11F850
:10031000013B11F801CB48BF11F8012B24BF00F8B5
:10032000013B00F801CB48BF00F8012B704702F0F9
:10033000FF0343EA032242EA024200F05EB84FF0B4
:10034000000200B5134694469646203922BFA0E825
:100350000C50A0E80C50B1F12001BFF4F7AF090731
:1003600028BFA0E80C5048BF0CC05DF804EB890022
:1003700028BF40F8042B08BF704748BF20F8022B65
:1003800011F0804F18BF00F8012B7047704770477D
:10039000704710B5203AC0F00B80B1E81850203AF1
:1003A000A0E81850B1E81850A0E81850BFF4F5AF15
:1003B0005FEA027C24BFB1E81850A0E8185044BF9F
:1003C00018C918C0BDE810405FEA827C24BF51F80C
:1003D000043B40F8043B08BF7047D20728BF31F800
:1003E000023B48BF11F8012B28BF20F8023B48BF51
:1003F00000F8012B70474FF000020429C0F0128072
:1004000010F0030C3FF49DAFCCF1040CBCF1020FD3
:1004100018BF00F8012BA8BF20F8022BA1EB0C019C
:10042000FFF78FBF5FEAC17C24BF00F8012B00F803
:10043000012B48BF00F8012B7047754600F02CF8DF
:10044000AE4605006946534620F00700854618B0C1
:1004500020B5FFF715FFBDE820404FF000064FF034
:1004600000074FF000084FF0000B21F00701AC46E9
:10047000ACE8C009ACE8C009ACE8C009ACE8C00908
:100480008D46704710B50446AFF300802046BDE8A6
:100490001040FFF794BE000000487047B41A0020D7
:1004A00001491820ABBEFEE726000200704770B578
:1004B000044600252068806800F0010018B3206819
:1004C000806820F001002168886000F0C1FD0546C9
:1004D00013E000F0BDFD401B02280ED920688068A3
:1004E00000F0010048B1A06A40F01000A062E06A8C
:1004F00040F00100E062012070BD2068806800F0DB
:1005000001000028E5D10020F6E700BFFEE700006B
:1005100010B5024800F0BEF910BD00000001002037
:100520007047704738B5024600230020009000BF96
:1005300092F82400012801D1022038BD012082F860
:10054000240000BF4868072812D21068406B0C795D
:10055000641E04EB84051F24AC40A0430D796D1E7E
:1005600005EB85050C68AC4020431468606327E008
:1005700048680D2812D21068006B0C79E41F04EB58
:1005800084051F24AC40A0430D79ED1F05EB8505C4
:100590000C68AC4020431468206311E01068C06A06
:1005A0000C790D3C04EB84051F24AC40A0430D796D
:1005B0000D3D05EB85050C68AC4020431468E062F6
:1005C00008680A2812D31068C0680C780A3C04EB4B
:1005D00044050724AC40A0430D780A3D05EB4505D2
:1005E0008C68AC4020431468E0600FE0106800693C
:1005F0000C7804EB44050724AC40A0430D7805EBD0
:1006000045058C68AC4020431468206108681028B8
:1006100002D00868112827D1174C1068A0421ED1BB
:100620001068806800F40000F0B91068806840F439
:1006300000001468A0600868102815D10F480068F1
:100640000F4CB0FBF4F000EB80004000009002E0A3
:100650000098401E009000980028F9D104E0906AAC
:1006600040F020009062012300BF002082F82400A7
:1006700000BF184661E70000002401402800002068
:1006800040420F002DE9F0410446002700250026D6
:10069000A84614B90120BDE8F081A06810B1207D02
:1006A00000B100BFA06A30B90020E06284F82400E5
:1006B000204600F097F82046FFF7F9FE0746A06AAB
:1006C00000F01000002873D1002F7ED1A06A20F422
:1006D000885040F00200A0623F4AD4E900019042F5
:1006E00008D1E069B0F5402F02D14FF4002002E0BC
:1006F000E06900E0E0690143207B41EA40000643F5
:10070000A068B0F5807F02D0A068012802D14FF424
:10071000807000E000200543207D012811D1207B5E
:1007200038B9A069401E4FF4006141EA40300543EA
:1007300007E0A06A40F02000A062E06A40F00100FB
:10074000E0622068406820F46940284321684860DE
:100750002068806821490840304321688860A0688B
:10076000B0F5807F02D0A068012802D14FF48070DC
:1007700000E00020B0F5807F03D1208A401E4FEAC0
:1007800000582068C06A20F4700040EA0800216820
:10079000C8622068806812490840B04209D1002030
:1007A000E062A06A20F0020040F00100A06211E0C7
:1007B0000BE0A06A20F0020040F01000A062E06AA6
:1007C00040F00100E062012704E0A06A40F0100060
:1007D000A062012738465EE7003C0140FDF7E1FFDB
:1007E000FE0E1FFF10B586B0044600200290039055
:1007F000049005902249206888423ED100BF2148DC
:10080000806940F400701F4988610846806900F4DF
:100810000070019000BF00BF00BF0846806940F033
:10082000040088610846806900F00400019000BF60
:1008300000BF012002900320039002A9124800F09B
:100840004FFA124812490860002048600021104801
:1008500081608021C16049000161890041612021DE
:1008600081610021C16100F0E1F908B1FFF759FE93
:1008700000BF07482062446200BF06B010BD000000
:10088000002401400010024000080140080002401E
:100890000001002070B50446E06B0568206806681A
:1008A00094F84010042088402840002875D006F0B5
:1008B00004000028FAD02068006800F0200028B961
:1008C0002068006820F0040021680860D54920688D
:1008D000884254D9D34978392068884201D104200C
:1008E00049E0D04964392068884201D1402042E083
:1008F000CC4950392068884201D100153BE0C949F4
:100900003C392068884202D14FF4804033E0C54929
:1009100028392068884202D14FF480202BE0C14959
:1009200014392068884202D14FF4800023E0BD4989
:100930002068884201D1C0041DE0BB49206888427C
:1009400001D1042017E0B84914312068884201D150
:10095000402010E0B44928312068884201D10015B8
:1009600009E0B1493C312068884202D14FF480400F
:1009700001E04FF48020AC49091F086054E0A94908
:1009800078392068884201D104204AE0A5496439B9
:100990002068884202D1402043E04CE0A149503910
:1009A0002068884201D100153BE09E493C3920680F
:1009B000884202D14FF4804033E09A4928392068B8
:1009C000884202D14FF480202BE0964914392068E8
:1009D000884202D14FF4800023E092492068884287
:1009E00001D1C0041DE090492068884201D1042053
:1009F00017E08D4914312068884201D1402010E071
:100A0000894928312068884201D1001509E08649CA
:100A10003C312068884202D14FF4804001E04FF41D
:100A20008020804980394860E06A002802D0204652
:100A3000E16A8847F4E094F840100220884028409A
:100A4000002871D006F002000028FAD02068006863
:100A500000F0200040B92068006820F00A002168FA
:100A60000860012084F821006E492068884254D92A
:100A70006C4978392068884201D1022049E06949EF
:100A800064392068884201D1202042E0654950390C
:100A90002068884201D140153BE062493C3920681A
:100AA000884202D14FF4005033E05E492839206873
:100AB000884202D14FF400302BE05A4914392068A3
:100AC000884202D14FF4001023E056492068884242
:100AD00001D180041DE054492068884201D10220E0
:100AE00017E0514914312068884201D1202010E0DC
:100AF0004D4928312068884201D1401509E04A4912
:100B00003C312068884202D14FF4005001E04FF49C
:100B100000304549091F086054E04249783920688F
:100B2000884202D102204AE057E03E4964392068F9
:100B3000884201D1202042E03A4950392068884259
:100B400001D140153BE037493C392068884202D149
:100B50004FF4005033E0334928392068884202D1ED
:100B60004FF400302BE02F4914392068884202D11D
:100B70004FF4001023E02B492068884201D1800403
:100B80001DE029492068884201D1022017E026494A
:100B900014312068884201D1202010E022492831F8
:100BA0002068884201D1401509E01F493C31206886
:100BB000884202D14FF4005001E04FF4003019494F
:100BC0008039486000BF002084F8200000BFA06A80
:100BD00030B32046A16A884722E094F840100820EC
:100BE00088402840E0B106F00800C8B120680068DD
:100BF00020F00E002168086094F840100120884021
:100C0000E16B48600120A06384F8210000BF002050
:100C100084F8200000BF206B10B12046216B88476C
:100C200070BD00008000024008040240014600221E
:100C300009B9012070471E4B086898420BD21D4B22
:100C40000868C01A1423B0FBF3F080000864194848
:100C50000838C8630AE0164B0868C01A1423B0FBB2
:100C6000F3F08000086412480838C863022081F855
:100C700021000868026843F6F0708243D1E901035D
:100C80001843CB6818430B6918434B6918438B69A9
:100C90001843CB6918430243086802600020886348
:100CA000012081F82100002081F8200000BFC1E769
:100CB000080402400800024070B5044600F0C8F97C
:100CC00006462546681C10B104480078054400BF5C
:100CD00000F0BEF9801BA842FAD370BD24000020AA
:100CE0002DE9F847024600239C467BE14FF00108BE
:100CF00008FA03F4D1F8008008EA0400A0427DD18C
:100D0000DFF8F4A2D1F80480A8EB0A09D0453AD064
:100D100014DCB8F1030F50D009DCB8F1000F31D06A
:100D2000B8F1010F1CD0B8F1020F49D120E0B8F1A1
:100D3000110F18D0B8F1120F42D11EE0B9F5881F7B
:100D400025D006DCB9F5803F20D0B9F5801F37D11A
:100D50001AE0B9F5001F18D0B9F5041F30D117E01B
:100D6000D1F80CC02DE0D1F80C8008F1040C28E07B
:100D7000D1F80C8008F1080C23E0D1F80C8008F1C0
:100D80000C0C1EE000BF00BF00BF00BF00BF00BFD3
:100D9000D1F80880B8F1000F02D14FF0040C0BE03D
:100DA000D1F80880B8F1010F03D14FF0080C14619D
:100DB00002E04FF0080C546103E04FF0000C00E03B
:100DC00000BF00BFFF2801D8904601E002F10408EF
:100DD0004646FF2802D84FEA830803E0A3F108083B
:100DE0004FEA88084746D6F800804FF00F0909FA05
:100DF00007F928EA09080CFA07F900E07AE048EA5E
:100E00000908C6F80080D1F8048008F08058B8F1CD
:100E1000805F6FD100BFDFF8E481D8F8188048F018
:100E20000108DFF8D891C9F81880C846D8F81880AA
:100E300008F00108CDF8008000BF00BF4FEAB938C4
:100E40004FEA930958F829504FEA83784FEA187906
:100E50004FF00F0808FA09F825EA0805DFF8A08125
:100E6000424502D14FF0000824E0DFF89881424566
:100E700002D14FF001081DE0DFF88C81424502D11C
:100E80004FF0020816E0DFF88481424502D14FF0AE
:100E900003080FE0DFF87881424502D14FF00408E3
:100EA00008E0DFF87081424502D14FF0050801E00B
:100EB0004FF006084FEA83794FEA197908FA09F8E2
:100EC00048EA0505DFF850814FEA930948F82950B0
:100ED000D1F8048008F48038B8F5803F0BD1DFF8F2
:100EE0003C81D8F8008048EA0008DFF83091C9F862
:100EF00000800AE075E0DFF82481D8F8008028EA55
:100F00000008DFF81891C9F80080D1F8048008F4CF
:100F10000038B8F5003F0ED1DFF8008108F1040871
:100F2000D8F8008048EA0008DFF8F09009F10409D9
:100F3000C9F800800DE0DFF8E48008F10408D8F873
:100F4000008028EA0008DFF8D49009F10409C9F804
:100F50000080D1F8048008F48018B8F5801F0ED105
:100F6000DFF8B88008F10808D8F8008048EA0008DF
:100F7000DFF8A89009F10809C9F800800DE0DFF852
:100F80009C8008F10808D8F8008028EA0008DFF8FB
:100F90008C9009F10809C9F80080D1F8048008F4A0
:100FA0000018B8F5001F0ED1DFF8708008F10C08AA
:100FB000D8F8008048EA0008DFF8609009F10C09D1
:100FC000C9F800800DE0DFF8548008F10C08D8F86B
:100FD000008028EA0008DFF8449009F10C09C9F8FC
:100FE00000805B1CD1F8008028FA03F8B8F1000FEC
:100FF0007FF47CAEBDE8F8870000111000100240BD
:1010000000080140000C01400010014000140140A4
:1010100000180140001C014008000140000401408C
:10102000024693680B400BB1012000E0002070479E
:1010300010B5C26821EA020302EA010443EA04434C
:10104000036110BD0AB1016101E00B040361704747
:1010500001480068704700001C00002070B504467D
:101060000CB9012070BD94F83D0028B9002084F827
:101070003C00204600F0DAF8242084F83D00206887
:10108000006820F00100216808602068006840F4D2
:101090000040216808602068006820F40040216852
:1010A000086000F079FB05465C496068884206D814
:1010B0005B48854201D2012007E0002005E0594845
:1010C000854201D2012000E00020012800D1C9E7BB
:1010D0005548B5FBF0F62068406820F03F003043EB
:1010E000216848604D496068884201D8701C07E05B
:1010F0004FF4967070434FF47A71B0FBF1F0401CDE
:101100002168096A21F03F010843216808624349C8
:101110006068884214D8681E61684900B0FBF1F02D
:10112000401CC0F30B00042801D204203DE0681EDF
:1011300061684900B0FBF1F0401CC0F30B0034E0E3
:10114000A06838B9681E616801EB4101B0FBF1F09D
:10115000401C0AE0681E616801EBC10202EB01114C
:10116000B0FBF1F0401C40F48040C0F30B0008B924
:1011700001201AE0A06848B9681E616801EB4101CE
:10118000B0FBF1F0401CC0F30B000CE0681E61687E
:1011900001EBC10202EB0111B0FBF1F0401CC0F306
:1011A0000B0040F4804040F400402168C9694CF6CF
:1011B000FF72914308432168C861D4E907010843DD
:1011C0002168096821F0C001084321680860D4E95A
:1011D000031008432168896848F2FF3291430843AD
:1011E00021688860D4E9050108432168C96821F0B5
:1011F000FF0108432168C8602068006840F00100D2
:101200002168086000202064202084F83D00002030
:10121000206384F83E0000BF24E70000A0860100A0
:1012200080841E0000093D0040420F0010B586B0CA
:101230000446002002900390049005901549206810
:10124000884225D100BF1448806940F00800124947
:1012500088610846806900F00800019000BF00BF67
:10126000C0200290122003900320059002A90B4891
:10127000FFF736FD00BF0848C06940F4001006497A
:10128000C8610846C06900F40010019000BF00BFAB
:1012900006B010BD0054004000100240000C014098
:1012A0000348006803490978084401490860704709
:1012B0001C0000202400002010B50848006840F001
:1012C000100006490860032000F0CCF80F2000F061
:1012D00007F800F049F8002010BD0000002002408F
:1012E00070B588B00446002500260022214619204A
:1012F00000F07AF8192000F067F800BF16488069FE
:1013000040F40060144988610846806900F4006078
:10131000019000BF00BF02A903A800F015FA00F079
:101320004BFA05460D48B5FBF0F0461E0C480D493A
:10133000086040F2E7310B48C1604660002101615E
:10134000816000F0C7FC20B9064800F0F7FC08B047
:1013500070BD0120FBE700000010024040420F007A
:10136000002C01409801002008B500BF1448806996
:1013700040F00100124988610846806900F00100D0
:10138000009000BF00BF00BF0846C06940F0805019
:10139000C8610846C06900F08050009000BF00BFDF
:1013A00000220F21901E00F01FF800BF0549486879
:1013B00020F0E06040F00070486000BF08BD000011
:1013C000001002400000014001460846002809DBE9
:1013D00000F01F0301229A4043099B0003F1E02320
:1013E000C3F8002100BF70472DE9F05F80460D462D
:1013F0001646002701F0CEF8074639462A463346FE
:1014000001F00700C0F1070ABAF1040F02D94FF04A
:10141000040A01E0C0F1070AD14600F1040ABAF15A
:10142000070F02D24FF0000A01E0A0F1030AD446F0
:101430004FF0010A0AFA09FAAAF1010A0AEA020AB5
:101440000AFA0CFA4FF0010B0BFA0CFBABF1010B93
:101450000BEA030B4AEA0B042146404601F0A2F8CE
:10146000BDE8F09F00BF00F00702064B19684FF679
:10147000FF031940044B0B4343EA0221014B19605F
:1014800000BF70470CED00E00000FA05F8B5044617
:1014900000260025207800F0010000286BD00027EE
:1014A0004348C06900F0805070B900BF4048C0692F
:1014B00040F080503E49C8610846C06900F0805045
:1014C000009000BF00BF01273A48006800F4807018
:1014D000B0B93848006840F4807036490860FFF7BA
:1014E000B7FD064606E0FFF7B3FD801B642801D96F
:1014F0000320F8BD2F48006800F480700028F2D067
:101500002B48006A00F440752DB3A08800F44070A9
:10151000A84220D02648006A20F4407501202649C0
:101520000860002008602248056205F0010090B1C3
:10153000FFF78EFD064608E0FFF78AFD801B41F2AB
:101540008831884201D90320D3E71948006A00F0A6
:1015500002000028F0D01648006A20F4407061684C
:10156000084313490862012F04D10846C06920F0DE
:101570008050C86100BF207800F00200022807D127
:101580000B48406820F44040A1680843084948607F
:10159000207800F01000102807D10548406820F49A
:1015A000800061690843024948600020A1E700000B
:1015B00000100240007000404004424270B50446F2
:1015C0000D460CB9012070BD5A48006800F00700B4
:1015D000A8420ED25748006820F00700284355491A
:1015E00008600846006800F00700A84201D001200A
:1015F000E9E7207800F0020002281DD1207800F0F1
:101600000400042805D14C48406840F4E0604A4991
:101610004860207800F00800082805D14648406856
:1016200040F46050444948604348406820F0F0006E
:10163000A168084340494860207800F0010078B371
:101640006068012806D13C48006800F4003090B979
:101650000120B8E76068022806D13748006800F02A
:10166000007040B90120AEE73348006800F0020086
:1016700008B90120A7E73048406820F003006168FE
:1016800008432D494860FFF7E3FC064609E0FFF7F1
:10169000DFFC801B41F28831884202D9032092E7A7
:1016A00007E02548406800F00C006168B0EB810F4E
:1016B000EDD12048006800F00700A8420ED91D486F
:1016C000006820F0070028431A49086008460068AF
:1016D00000F00700A84201D0012074E7207800F054
:1016E0000400042807D11448406820F4E060E16851
:1016F000084311494860207800F00800082808D104
:101700000D48406820F46050216940EAC1000A4950
:10171000486000F061F808494968C1F30311074ABD
:10172000515CC8400649086006480068FFF7D8FDCC
:10173000002048E700200240001002406C460008EC
:1017400028000020200000200F2202600D4A52686D
:1017500002F0030242600B4A526802F0F00282601B
:10176000084A526802F4E062C260064A526802F413
:101770006052D2080261044A126802F007020A604D
:10178000704700000010024000200240014800683D
:10179000704700002800002000B5FFF7F7FF04495C
:1017A0004968C1F30221034A515CC84000BD0000F2
:1017B000001002407C46000800B5FFF7E7FF04492F
:1017C0004968C1F3C221034A515CC84000BD000012
:1017D000001002407C460008F0B585B00FF26C0C9A
:1017E0009CE8E01001A8A0E8E0101CA52D68009579
:1017F00000210022002300240020194D696801F017
:101800000C05F5B1042D02D0082D19D101E01548C1
:1018100019E001ADC1F38346AC5D01F4803555B1EB
:101820000F4D6D68C5F340451DF805200D4D65430E
:10183000B5FBF2F302E00C4D04FB05F3184602E0A1
:1018400000BF084800BF00BF05B0F0BD020304059B
:10185000060708090A0B0C0D0E0F101001020000FC
:101860000010024000127A0000093D00F8B504465D
:101870000CB90120F8BD207800F00100002878D0D4
:10188000F848406800F00C0004280CD0F548406887
:1018900000F00C00082811D1F248406800F48030B4
:1018A000B0F5803F0AD1EF48006800F4003000280E
:1018B0005FD0606800285CD10120DBE700BF606872
:1018C000B0F5803F06D1E748006840F48030E54934
:1018D000086028E0606858B9E248006820F4803069
:1018E000E04908600846006820F4802008601AE09B
:1018F0006068B0F5A02F0BD1DA48006840F4802072
:10190000D84908600846006840F4803008600AE062
:10191000D448006820F48030D24908600846006846
:1019200020F48020086000BF606888B1FFF790FB5A
:10193000054606E0FFF78CFB401B642801D9032015
:1019400098E7C848006800F400300028F2D010E0A2
:10195000FFF77EFB054606E0FFF77AFB401B642895
:1019600001D9032086E7BF48006800F40030002852
:10197000F2D1207800F00200022857D1B94840681F
:1019800000F00C0050B1B748406800F00C00082887
:1019900018D1B448406800F4803098B9B148006864
:1019A00000F0020020B12069012801D0012061E788
:1019B000AC48006820F0F800616940EAC100A9491C
:1019C000086033E02069E8B10120A7490860FFF70B
:1019D0003FFB054606E0FFF73BFB401B022801D911
:1019E000032047E79F48006800F002000028F2D07B
:1019F0009C48006820F0F800616940EAC1009949FC
:101A0000086013E0002098490860FFF721FB0546B5
:101A100006E0FFF71DFB401B022801D9032029E740
:101A20009048006800F002000028F2D1207800F011
:101A3000080008282DD1A069B8B101208B490860A1
:101A4000FFF706FB054606E0FFF702FB401B0228F6
:101A500001D903200EE78348406A00F00200002805
:101A6000F2D0012000F0B8FC13E000207F490860AC
:101A7000FFF7EEFA054606E0FFF7EAFA401B0228F8
:101A800001D90320F6E67748406A00F002000028FA
:101A9000F2D1207800F00400042873D100277148A7
:101AA000C06900F0805070B900BF6E48C06940F056
:101AB00080506C49C8610846C06900F080500090B1
:101AC00000BF00BF01276A48006800F48070B0B909
:101AD0006748006840F4807065490860FFF7B8FA0D
:101AE000054606E0FFF7B4FA401B642801D903203D
:101AF000C0E65F48006800F480700028F2D000BFA4
:101B0000E068012806D15748006A40F001005549B5
:101B1000086227E0E06858B95248006A20F00100E6
:101B2000504908620846006A20F00400086219E083
:101B3000E06805280BD14B48006A40F00400494991
:101B400008620846006A40F0010008620AE0454861
:101B5000006A20F00100434908620846006A20F04C
:101B60000400086200BFE068A0B1FFF771FA054603
:101B700009E0FFF76DFA401B41F28831884202D933
:101B8000032077E622E03748006A00F002000028D0
:101B9000EFD012E0FFF75CFA054608E0FFF758FACD
:101BA000401B41F28831884201D9032062E62D486A
:101BB000006A00F002000028F0D1012F05D1294869
:101BC000C06920F080502749C86100BFE069C8B3F0
:101BD0002448406800F00C00082860D0E069022822
:101BE00048D1002020490866FFF732FA054606E092
:101BF000FFF72EFA401B022801D903203AE61948C4
:101C0000006800F000700028F2D1206AB0F5803F33
:101C100007D11448406820F40030A16808431149F6
:101C20004860D4E9080108430E49496821F4741159
:101C300008430C49486001200B490866FFF708FA81
:101C4000054607E03DE0FFF703FA401B022801D9F3
:101C500003200FE60348006800F000700028F2D06F
:101C60002FE0000000100240000042428004424287
:101C700000700040002014490866FFF7E9F90546A6
:101C800006E0FFF7E5F9401B022801D90320F1E542
:101C90000E48006800F000700028F2D111E0E06901
:101CA000012800D1E6E50948466806F48031206A3B
:101CB000814204D106F47011606A814201D0012092
:101CC000D8E50020D6E500000000424200100240A6
:101CD0007047704710B504460CB9012010BD94F848
:101CE0003D0028B9002084F83C00204600F025F88B
:101CF000022084F83D00211D206800F0FBFB01203C
:101D000084F8460000BF84F83E0001213F200155C1
:101D1000402001554120015500BF00BF012084F83B
:101D2000420043200155442001554520015500BF84
:101D3000012084F83D000020D0E77047014691F86B
:101D40003D00012801D001207047022081F83D00AC
:101D50000868C06840F001000B68D860164B08683E
:101D6000984213D0154B086898420FD00868B0F11C
:101D7000804F0BD0124B0868984207D0114B08686F
:101D8000984203D0104B086898420CD108688068CC
:101D900000F00702062A0CD00868006840F0010035
:101DA0000B68186005E00868006840F001000B68E7
:101DB00018600020C8E70000002C014000340140FA
:101DC0000004004000080040000C0040704710B5BF
:101DD000044620680069C0F34000D8B12068C0689C
:101DE000C0F34000B0B16FF002002168086101202B
:101DF00020772068806900F0030018B12046FFF7C3
:101E0000E5FF05E0204600F0ADF8204600F0ABF815
:101E10000020207720680069C0F38000D8B12068D6
:101E2000C068C0F38000B0B16FF0040021680861A1
:101E3000022020772068806900F4407018B12046A5
:101E4000FFF7C4FF05E0204600F08CF8204600F0C4
:101E50008AF80020207720680069C0F3C000D8B15C
:101E60002068C068C0F3C000B0B16FF008002168FE
:101E70000861042020772068C06900F0030018B1D1
:101E80002046FFF7A3FF05E0204600F06BF8204650
:101E900000F069F80020207720680069C0F3001086
:101EA000D8B12068C068C0F30010B0B16FF0100066
:101EB00021680861082020772068C06900F440701C
:101EC00018B12046FFF782FF05E0204600F04AF8EF
:101ED000204600F048F8002020772068006900F0D4
:101EE000010058B12068C06800F0010030B16FF007
:101EF000010021680861204600F036F8206800697A
:101F0000C0F3C01058B12068C068C0F3C01030B131
:101F10006FF08000216808612046FFF7D9FE206835
:101F20000069C0F3801058B12068C068C0F3801009
:101F300030B16FF0400021680861204600F020F8C1
:101F400020680069C0F3401058B12068C068C0F331
:101F5000401030B16FF02000216808612046FFF783
:101F6000B8FE10BD7047704710B50446034920689D
:101F7000884201D1FFF794F910BD0000002C014008
:101F8000704700BFFEE700000EB5002000900190F2
:101F90000290134813490860002112488160012112
:101FA0000173002101754FF46021C16100200D49CA
:101FB000486001210B480161FEF764FB08B1FEF7A0
:101FC000B0FA00200090012001900720029069469D
:101FD0000448FEF7A7FA08B1FEF7A3FA0EBD000009
:101FE00000240140D000002008B500BF0A48406925
:101FF00040F00100084948610846406900F00100CE
:10200000009000BF00BF002205210B20FFF7ECF974
:102010000B20FFF7D9F908BD0010024000B585B0CC
:102020000020019002900390049000BF3B4880691B
:1020300040F02000394988610846806900F020009E
:10204000009000BF00BF00BF0846806940F0040058
:1020500088610846806900F00400009000BF00BF5E
:1020600000BF0846806940F0080088610846806922
:1020700000F00800009000BF00BF0022891528482A
:10208000FEF7E0FF01224FF440712648FEF7DAFF29
:1020900078200190002002900120039001A920489F
:1020A000FEF71EFE4FF4C040019000200290012078
:1020B000039001A91B48FEF713FE4FF480700190B6
:1020C00001200290002003900320049001A91448ED
:1020D000FEF706FE042001900020029002200390EB
:1020E00001A91148FEF7FCFD382001900020029064
:1020F0000220039001A90B48FEF7F2FD4FF4407057
:10210000019001200290002003900220049001A978
:102110000448FEF7E5FD05B000BD000000100240D8
:1021200000080140000C01400014014010B50B48AC
:102130000B4908600B484860002109488160C16074
:102140004FF480410161002141618161C1610162FF
:10215000FEF784FF08B1FEF7E4F910BD005400401B
:1021600044010020801A060000BFFEE7704700000F
:1021700010B5012202212648FEF7D9F8254800783B
:1021800040BB08212448FEF74BFF2149087020215D
:102190002248FEF745FF1E494870002417E01C48FE
:1021A000005D90B96420FEF787FD1D48007808B9EE
:1021B000012000E000201A4908700120154908702C
:1021C000FEF746FF1749086003E0601CC4B2022C0A
:1021D000E5DB17E0FEF73CFF12490968401AB0F54D
:1021E0007A7F0FD9FEF734FF0E4908600E48007859
:1021F000401CC0B20C4908701E2803DB0020087088
:10220000044908700648007800F050FA10BD00003C
:10221000A4000020AD00002000080140000C014097
:10222000A6000020A8000020AC00002010B501226C
:1022300002212E48FEF77BF82D48007830BB102194
:102240002C48FEF7EDFE2949087010212A48FEF7B8
:10225000E7FE26494870002415E02448005D80B957
:102260006420FEF729FD01202449087020490870E8
:10227000FEF7EEFE22490860FEF7EAFE21490860FB
:1022800003E0601CC4B2022CE7DB17E0FEF7E0FEBF
:102290001B490968401AB0F57A7F0FD9FEF7D8FEBE
:1022A0001749086018480078401CC0B216490870E9
:1022B000032803DB002008700D4908700F480078E0
:1022C00001280DD1FEF7C4FE0E490968401A40F2FC
:1022D000DC51884204D900200A4908600749087087
:1022E0000648007800F0F6F910BD0000AE000020AE
:1022F000B900002000080140000C0140B00000209F
:10230000B4000020BC000020B800002010B501225D
:1023100004212A48FEF70BF820212948FEF780FE09
:102320002649087040212648FEF77AFE2349487066
:1023300008212448FEF774FE2049887004212248B1
:10234000FEF76EFE1D49C87000240FE01B48005DBB
:1023500050B94FF4FA70FEF7AFFC1C48007880F0DB
:1023600001001A49087003E0601CC4B2042CEDDBC4
:1023700000BF16480078012807D1FFF7F9FEFFF7E4
:1023800055FF64201249086005E000F081F94FF420
:102390007A700F490860FEF75BFE0E490968401A23
:1023A0000B490968884208D9FEF752FE09490860BE
:1023B0004FF480710248FEF73BFE10BDC0000020C4
:1023C00000080140000C014000140140C40000203E
:1023D000CC000020C800002008B508490968C908D9
:1023E0004FF47A72B1FBF2F14143009100BF00BF9C
:1023F00000994A1E00920029F9D108BD280000204A
:1024000000BF00F041F9012000F078F9F9E700BFC2
:10241000012000F073F9FBE700BF012000F06EF926
:10242000FBE700BF012000F069F9FBE710B500BF32
:10243000502080F31188BFF34F8FBFF36F8F00BF21
:1024400001F08CFE18B14FF080500449086000BFC5
:10245000002080F3118800BF10BD000004ED00E0F3
:1024600000B595B028210BA8FDF769FF142106A837
:10247000FDF765FF18216846FDF761FF01200B900D
:1024800000040C9000200D9001200F90022012906B
:10249000C10313914FF4E01114910BA8FFF7E6F973
:1024A00008B1FEF73EF80F200690022007900020AA
:1024B00008904FF48060099000200A90022106A83D
:1024C000FFF77CF808B1FEF72CF80220009080039B
:1024D00002906846FEF7DAFF08B1FEF722F815B061
:1024E00000BD704710B50248FFF771FC10BD000039
:1024F0009801002010B50268204B98420ED0204B66
:1025000098420BD0B0F1804F08D01E4B984205D0B6
:102510001D4B984202D01D4B984203D122F070020D
:102520004B681A43154B98420ED0154B98420BD06E
:10253000B0F1804F08D0134B984205D0124B98420F
:1025400002D0124B984203D122F44072CB681A4356
:1025500022F080034C6943EA040202608B68C36284
:102560000B688362054B984202D0054B984201D11B
:102570000B6903630123436110BD0000002C01407F
:10258000003401400004004000080040000C0040FE
:1025900000BFFEE702480068C0F302207047000059
:1025A0000CED00E010B5002804DB0A07130E054A05
:1025B000135406E00A07140E034A00F00F031B1F12
:1025C000D45410BD00E400E018ED00E0EFF31180FA
:1025D0007047EFF305807047EFF3108070470000FD
:1025E000FEF76AFEFFF73CFFFFF718FDFFF7FCFC64
:1025F000FFF7CAFCFFF79AFD00F03AF800F09AF8EE
:102600000F4A00210F4800F0D7F80F4908600F4A21
:1026100000210F4800F0D0F80E4908600E4A002152
:102620000E4800F0C9F80E4908600E4A00210E4815
:1026300000F0C2F80D49086000F09CF800BFFEE70A
:10264000DC450008012400080000002000460008C6
:102650000F24000804000020244600081924000864
:102660000800002048460008232400080C00002031
:1026700010B5012211020348FEF7E4FC00F008F84F
:1026800010BD00000008014010B5FFF73FFE10BD6F
:1026900010B5012251020448FEF7D4FC01221102B8
:1026A0000148FEF7CFFC10BD000C014010B50446F8
:1026B0002CB9012251020648FEF7C4FC06E0012CA9
:1026C00004D1002261020248FEF7BCFC10BD0000EC
:1026D000000C014010B504462CB901221102064835
:1026E000FEF7B0FC06E0012C04D1002221020248D2
:1026F000FEF7A8FC10BD0000000C014070B50546B7
:10270000FFF767FF48B9FFF767FF30B9084800686F
:10271000022805D1FFF75AFF10B16FF0050404E05D
:10272000002415B1284600F0CBFF204670BD000004
:102730007C00002010B5FFF74CFF48B9FFF74CFFB5
:1027400030B90B480068022805D1FFF73FFF10B1F0
:102750006FF0050409E00648006820B9012004492B
:102760000860002401E04FF0FF34204610BD000057
:102770007C00002010B5FFF72CFF48B9FFF72CFFB5
:1027800030B90C480068022805D1FFF71FFF10B1CF
:102790006FF005040CE007480068012806D102200C
:1027A0000449086001F008F8002401E04FF0FF340C
:1027B000204610BD7C0000202DE9F04786B0804601
:1027C0008946144600200490FFF703FF00285DD1DE
:1027D000FFF702FF002859D12D480068022803D1D5
:1027E000FFF7F4FE002851D1B8F1000F4ED080263B
:1027F0001825002005900DF1140A471E44B32068E7
:1028000008B1D4F800A0A06900B1A5692DB1382D98
:1028100003D8207900F0010018B1002006B0BDE80F
:10282000F087606908B160698608A06840B1E06817
:102830005C2805D3206918B1606908B1012708E058
:10284000A06830B9E06820B9206910B9002700E01D
:102850000027012F0CD12169A0684B463246CDE9F3
:10286000005102905146404601F006FC04900DE0F4
:1028700067B904A8B2B24B465146CDE90050404674
:1028800001F0C8FB012801D0002004900498C5E79E
:102890007C0000202DE9F04105460E4616480768E9
:1028A00016480068001D00F08BFD681C38B936B171
:1028B00012480168091D124800F0D8FD1AE07C1981
:1028C0000E4800684460BC4207D20C480168091DEC
:1028D0000C48006800F0B0FD0CE008480168091DD4
:1028E0000948006800F0A8FD08480068844201D249
:1028F00006480460BDE8F081400000202C00002064
:10290000D006002034000020300000205C000020B1
:1029100010B5044600F0B6FD24480068401C234969
:1029200008602348006840B92148046008460068F0
:1029300001280DD100F0F8F90AE01E48006838B906
:102940001B480068C06AE16A884201D818480460E0
:1029500019480068401C184908600846006860640F
:102960001649E06A0968884202D91449E06A086099
:10297000E16A01EB8101124A02EB8100211D00F0A6
:1029800075FD00F0A9FD0B48006868B108480068B3
:10299000C06AE16A884207D24FF080500949086056
:1029A000BFF34F8FBFF36F8F10BD00003C000020BE
:1029B0002C00002048000020580000204400002087
:1029C0002002002004ED00E008B500F05BFD124895
:1029D0000068E8B9114800F01FFD114800F01CFD27
:1029E0000E48104908600E480F49086000200F4B40
:1029F0000F4A102100900A2001F006F806490860ED
:102A00000846006820B10BA10348006800F01CFED6
:102A100000F062FD08BD000070000020E406002008
:102A2000F8060020680000206C0000200C07002041
:102A30005C070020546D72510000000010B516E0D4
:102A400000F020FD0C48C068C468201D00F0B8FCF0
:102A50000A480068401E0949086009480068401E8D
:102A60000749086000F038FD204600F05EF8044891
:102A700000680028E4D110BDBC0600203C00002006
:102A80003800002070B504460D46206C70B1216CF2
:102A9000E0680844E0606168E068884201D320682B
:102AA000E0602846226CE168FDF7FCFB70BD2DE973
:102AB000F04104460F4615464FF00008A66B206C07
:102AC00040B9206860BB606801F0EAFB80460020E6
:102AD000606025E07DB93946226CA068FDF7E2FB15
:102AE000216CA0680844A060D4E90110884217D383
:102AF0002068A06014E03946226CE068FDF7D2FB44
:102B0000216CE068401AE0602168E068884203D2E6
:102B1000216C6068401AE060022D01D106B1761E7A
:102B2000701CA0634046BDE8F08110B5044694F8DF
:102B3000590030B9206B00F0EDFC204600F0EAFCB3
:102B40001AE094F85900012803D1204600F0E2FC75
:102B500012E094F85900022801D1012000E0002081
:102B600050B900BF502080F31188BFF34F8FBFF3DF
:102B70006F8F00BF00BFFEE710BD00000146084A8E
:102B8000126812680AB9012200E000220A600A688D
:102B900022B9034A1268D268106800E0002070472A
:102BA0006800002030B54FF44063174800F0070478
:102BB0002CB1C01D20F00700134C041B1B1B024648
:102BC000124C22600024114D6C60D018083820F09F
:102BD00007000F4C206000240D4D2D686C600C4DDB
:102BE0002D682C601146441A4C60094C24680C6016
:102BF000084D4C682C60084D4C682C604FF0004428
:102C0000064D2C6030BD0000B40E00208000002076
:102C100088000020900000208C00002094000020FC
:102C200000BFFFF70BFF064800680128F9D94FF0F5
:102C3000805004490860BFF34F8FBFF36F8FF0E7F8
:102C40002002002004ED00E02DE9F04106460D468B
:102C500017469846069C0DB9246000E02760E6639D
:102C600025640121204600F03FFF84F84C80BDE838
:102C7000F0812DE9F05F82460F4690469B460A9E02
:102C80000C9C4FEA8801A522206BFDF750FBA8F1B0
:102C90000100216B01EB800929F0070909F0070009
:102CA00008B9012000E0002050B900BF502080F397
:102CB0001188BFF34F8FBFF36F8F00BF00BFFEE7D8
:102CC000002507E0795D04F134004155785D00B9D5
:102CD00002E06D1C102DF5D300BF002143200155EB
:102CE000382E00D33726E662E66400202065201DDA
:102CF00000F09FFB04F1180000F09BFB2461C6F17B
:102D00003800A06164620020606584F858005A466B
:102D10005146484600F042FB20600B9808B10B98E2
:102D20000460BDE8F09F000010B5002407E004EB4C
:102D300084010F4A02EB810000F06EFB641C382C0A
:102D4000F5D30C4800F068FB0B4800F065FB0B481E
:102D500000F062FB0A4800F05FFB0A4800F05CFBF1
:102D600004480949086004480849086010BD00008B
:102D7000200200208006002094060020A8060020E3
:102D8000BC060020D00600203000002034000020C7
:102D900010B50146164800E0006803688B42FBD37B
:102DA0000246436813448B4204D143684C68234471
:102DB000436001460A464B6813440468A34211D19C
:102DC0000C4C03682468A34208D04B68046864680C
:102DD00023444B6003681B680B6005E0054B1B68D0
:102DE0000B6001E003680B60884200D0016010BDF9
:102DF00080000020880000202DE9F04104460D46A7
:102E000016461F464FF0000865602461B5420CD895
:102E1000F01BA169884202D34FF0010811E0211D87
:102E20000948006800F008FB0BE0BE4204D2BD4236
:102E300002D34FF0010804E0211D0448006800F0AF
:102E4000FBFA4046BDE8F0816C00002068000020DD
:102E500070B5054600F016FBA86B08B9012400E028
:102E6000002400F039FB204670BD70B5054600F027
:102E700009FBA86BE96B884201D1012400E0002422
:102E800000F02AFB204670BDF8B505460F461648EF
:102E90000068C068C468201D00F092FAE06901284B
:102EA0001DD1A06941192B463A462046FFF7A4FFE1
:102EB000A8B1002003462A4601460090204601F0B2
:102EC0004BFB064656B900BF502080F31188BFF374
:102ED0004F8FBFF36F8F00BF00BFFEE700BF2046DC
:102EE000616A8847F8BD000068000020F0B587B02F
:102EF00082E00398002811DA04AE56B900BF5020D2
:102F000080F31188BFF34F8FBFF36F8F00BF00BFF7
:102F1000FEE7D6E90020B168904700BF039800287B
:102F20006ADB059C606908B9012000E0002010B947
:102F3000201D00F045FA02A800F0C0F805460398ED
:102F40000A2857D2DFE800F009050731334F060899
:102F5000323400BF00BF00BF00BF0498A2698118CF
:102F600003462A462046FFF747FFE8B12046616A3C
:102F70008847E069012817D1002000900498A169D2
:102F8000421800231946204601F0E6FA074657B9D1
:102F900000BF502080F31188BFF34F8FBFF36F8FB6
:102FA00000BF00BFFEE700BF25E000BF23E000BF79
:102FB0000498A061A06908B1012000E0002050B988
:102FC00000BF502080F31188BFF34F8FBFF36F8F86
:102FD00000BF00BFFEE7A06941192B462A462046E4
:102FE000FFF70AFF07E094F82C0010B9204600F024
:102FF00091FA00E000BF00BF002203A90448006866
:1030000000F00EFF00287FF474AF07B0F0BD0000A1
:1030100070000020F8B505460C4600F029FC684613
:1030200000F04CF80646009820BB44B9B54206D8DB
:1030300001F0D4F931462846FFF726FF1CE03CB1E9
:103040000E480068006808B9012000E0002004462E
:10305000A91B22460A48006800F00CFB01F0BEF9EB
:1030600050B94FF0805007490860BFF34F8FBFF34E
:103070006F8F01E001F0B2F9F8BD00006C00002094
:103080007000002004ED00E00A490968096809B9E8
:10309000012100E0002121B14FF0FF31064A11600B
:1030A00006E004490968C968C868034A41681160B4
:1030B00070470000300000205C00002070B504461E
:1030C00001F046F8054607480068854204D200F042
:1030D0000BF80120206001E000202060014805601D
:1030E000284670BD780000202DE9F84332E02448DE
:1030F0000068C068056822480068C068C468201D70
:1031000000F05EF92046616A8847E069012821D114
:10311000A0694619AE4207D966602461211D18488E
:10312000006800F089F915E0002003462A460146B0
:103130000090204601F010FA074657B900BF502012
:1031400080F31188BFF34F8FBFF36F8F00BF00BFB5
:10315000FEE700BF0A480068006808B9012000E0E7
:1031600000200028C3D00648D0F800800548006839
:10317000034908600348C0F80080BDE8F8830000F8
:10318000680000206C0000200E480068401C08B950
:10319000012000E0002050B900BF502080F31188CA
:1031A000BFF34F8FBFF36F8F00BF00BFFEE700BFBD
:1031B000502080F31188BFF34F8FBFF36F8F00BF94
:1031C00000BFFEE79800002008B500BF6846FFF783
:1031D000D5FC044620460099FFF71CFFFFF786FE4A
:1031E000F4E770B5044600F04DF994F9455010E04D
:1031F000606A08B9012000E0002038B904F1240019
:1032000001F0A0F818B100F095FA00E003E0681EA4
:1032100045B2002DECDC00BFFF2084F8450000F033
:103220005BF900F02FF994F9445010E0206908B9D7
:10323000012000E0002048B904F1100001F082F8FC
:1032400008B100F077FA681E45B200E001E0002DF9
:10325000ECDC00BFFF2084F8440000F03DF970BDB5
:103260002DE9F04104464FF0000800F001FB46480C
:10327000006808B9FFF796FC444800682040002821
:103280006BD1D4B1083404F00700B0B104F00700EA
:10329000C0F10800044404F0070008B9012000E070
:1032A000002050B900BF502080F31188BFF34F8F2A
:1032B000BFF36F8F00BF00BFFEE7002C4DD0344836
:1032C0000068844249D8334E3046056801E02E46F6
:1032D0002D686868A04202D228680028F7D12A48E1
:1032E0000068854239D0306800F1080828683060ED
:1032F0006868001B102819D92F1907F0070008B9B2
:10330000012000E0002050B900BF502080F3118858
:10331000BFF34F8FBFF36F8F00BF00BFFEE768683A
:10332000001B78606C603846FFF732FD184968680A
:103330000968081A164908600846006816490968AD
:10334000884203D212480068134908600F49686830
:103350000968084368600020286001F03FF808F021
:10336000070008B9012000E0002050B900BF50203C
:1033700080F31188BFF34F8FBFF36F8F00BF00BF83
:10338000FEE74046BDE8F081880000209400002060
:103390008C0000208000002090000020001F4FF0D3
:1033A00080730360001F21F001030360001F034BC3
:1033B000036014380260203870470000893100082B
:1033C00001460A69D1E901309860D1E901035860EA
:1033D0005068884201D188685060002008611068F8
:1033E000401E106010687047034B0360034B0B6076
:1033F0008023136070470000FC070020580800205D
:10340000034B0360034B0B604FF4807313607047F2
:10341000580A0020B40A002000F1080141604FF072
:10342000FF31816000F10801C1600161002101608C
:10343000704700210161704710B502460B685C1CA3
:103440000CB9106907E002F1080000E04068446828
:1034500024689C42FAD944684C604C68A16088603A
:1034600041600A611468641C146010BD42684A60BF
:1034700093688B60936859609160086103685B1C76
:103480000360704700BF502080F31188BFF34F8F57
:10349000BFF36F8F00BF0E480068401C0C490860E6
:1034A00008460068012812D10A480068C0B208B96D
:1034B000012000E0002050B900BF502080F31188A7
:1034C000BFF34F8FBFF36F8F00BF00BFFEE77047A2
:1034D0009800002004ED00E00D48006850B900BFDE
:1034E000502080F31188BFF34F8FBFF36F8F00BF61
:1034F00000BFFEE706480068401E05490860084610
:10350000006820B9002080F3118800BF00BF704719
:103510009800002070B506463546002E3FD0083D85
:103520002C461F4960680968084008B1012000E086
:10353000002050B900BF502080F31188BFF34F8F97
:10354000BFF36F8F00BF00BFFEE7206808B90120FE
:1035500000E0002050B900BF502080F31188BFF375
:103560004F8FBFF36F8F00BF00BFFEE70C4960684D
:103570000968084098B1206888B9094960680968F5
:103580008843606000F074F906496068096808447F
:10359000044908602046FFF7FBFB00F01FFF70BDE9
:1035A000940000208C00002000204FF0E0210861F2
:1035B0008861064800684FF47A71B0FBF1F0401E54
:1035C0004FF0E02148610720086170472800002083
:1035D00070B5FCF743FE0446102C16D304F1E0202E
:1035E00090F8F05315480078854201DB012000E097
:1035F000002050B900BF502080F31188BFF34F8FD7
:10360000BFF36F8F00BF00BFFEE70D48006800F4F6
:10361000E0600C490968884201D8012000E00020E0
:1036200050B900BF502080F31188BFF34F8FBFF314
:103630006F8F00BF00BFFEE770BD00009C00002040
:103640000CED00E0A0000020024600200BE0084B3B
:1036500053F8303033B9064B43F8301003EBC00356
:103660005A6002E0401C0828F1D300BF70470000F8
:10367000E00100202DE9F04105460E4617462C4694
:10368000FFF700FF94F94400401C10B9002084F8B3
:10369000440094F94500401C10B9002084F845000E
:1036A000FFF71AFFA06B28B93A46314604F124000F
:1036B00000F062F82046FFF794FDBDE8F0810000BD
:1036C00070B504460025D4B11248006808B901203D
:1036D00000E0002050B900BF502080F31188BFF3F4
:1036E0004F8FBFF36F8F00BF00BFFEE700F0C0F841
:1036F00000212046FFF7CEF800F070FE05463DB9E8
:103700004FF0805004490860BFF34F8FBFF36F8FB5
:1037100070BD00006400002004ED00E0034909686A
:1037200001600349096841607047000054000020AF
:10373000400000200120014908607047500000202F
:1037400070B504460D4654B900BF502080F311886F
:10375000BFF34F8FBFF36F8F00BF00BFFEE7054879
:10376000016818312046FFF767FE01212846FFF760
:1037700091F870BD2C00002070B505460E46144629
:1037800055B900BF502080F31188BFF34F8FBFF3AE
:103790006F8F00BF00BFFEE706480168183128465A
:1037A000FFF764FE0CB14FF0FF3621463046FFF7BD
:1037B00071F870BD2C00002010B586B00020059077
:1037C000049003AA04A905A8FFF70EFE0022DDE974
:1037D00004101346CDE9002102901EA11F48039A50
:1037E00000F04AFC1E4908600846006808B1012440
:1037F00000E00024012C02D100F072FE0446012CEE
:1038000015D100BF502080F31188BFF34F8FBFF355
:103810006F8F00BF4FF0FF3012490860012012493E
:10382000086000201149086000F072F810E0601C88
:1038300008B1012000E0002050B900BF502080F303
:103840001188BFF34F8FBFF36F8F00BF00BFFEE73C
:1038500006B010BD49444C4500000000212C000872
:10386000600000205C000020480000204000002094
:1038700002480068401C014908607047640000204D
:103880001E48006818B101201D49086034E000207E
:103890001B4908601B4801680CE051B900BF50206B
:1038A00080F31188BFF34F8FBFF36F8F00BF00BF4E
:1038B000FEE7491E01EB8100134A52F8200008B9C7
:1038C000012000E000200028E7D101EB81020E4B2F
:1038D00003EB820042685268426000F108024368CC
:1038E000934202D14268526842604268D268074BF4
:1038F0001A600448016000BF7047000064000020A7
:103900005000002044000020200200202C00002055
:103910001CB53849084600780190FF200A4610700F
:103920000846007800909DF8000000F0F0009DF837
:103930000020904201D1012000E0002050B900BFDA
:10394000502080F31188BFF34F8FBFF36F8F00BFFC
:1039500000BFFEE79DF8000000F05000264A1070FE
:103960000720264A106009E024480068401E234AC8
:1039700010609DF800004006000E00909DF80000C9
:1039800000F080008028EFD01C480068C0F10700DC
:10399000042801D1012000E0002050B900BF5020D0
:1039A00080F31188BFF34F8FBFF36F8F00BF00BF4D
:1039B000FEE7124800680002104A106010460088B6
:1039C00000F4E06010600B4A019810700C48006829
:1039D00040F470000A4908600846006840F07040F2
:1039E0000860FFF7E1FD002006490860FCF700FCD5
:1039F00000201CBD00E400E09C000020A00000208E
:103A000020ED00E0980000202DE9F84380460E46A6
:103A100017461D46DDF82090B8F1000F01D00120B7
:103A200000E0002050B900BF502080F31188BFF3A0
:103A30004F8FBFF36F8F00BF00BFFEE70DB10120B6
:103A400000E0002050B900BF502080F31188BFF380
:103A50004F8FBFF36F8F00BF00BFFEE707B10EB1FE
:103A6000012000E0002050B900BF502080F31188F1
:103A7000BFF34F8FBFF36F8F00BF00BFFEE707B9E3
:103A80000EB9012000E0002050B900BF502080F3A3
:103A90001188BFF34F8FBFF36F8F00BF00BFFEE7EA
:103AA000502000900098502801D1012000E0002013
:103AB00050B900BF502080F31188BFF34F8FBFF380
:103AC0006F8F00BF00BFFEE72C464CB1012084F889
:103AD00046004B463A46314640460094FFF7B4F85C
:103AE0002046BDE8F883000070B505460E462C461A
:103AF00054B900BF502080F31188BFF34F8FBFF33C
:103B00006F8F00BF00BFFEE7FFF7BCFCD4E90F12C8
:103B1000206801FB020060600020A0632068A060B4
:103B2000E06B401E226C216800FB0210E060FF2069
:103B300084F8440084F845009EB9206908B9012042
:103B400000E00020A8B904F1100000F0FBFB80B1F8
:103B50004FF0805009490860BFF34F8FBFF36F8F5C
:103B600007E004F11000FFF757FC04F12400FFF711
:103B700053FCFFF7B1FC012070BD000004ED00E034
:103B80002DE9FF4383B0064688461D464FF00009E5
:103B9000344654B900BF502080F31188BFF34F8FD3
:103BA000BFF36F8F00BF00BFFEE7B8F1000F01D178
:103BB000206C08B9012000E0002050B900BF50205F
:103BC00080F31188BFF34F8FBFF36F8F00BF00BF2B
:103BD000FEE7022D02D1E06B012801D1012000E0B7
:103BE000002050B900BF502080F31188BFF34F8FE1
:103BF000BFF36F8F00BF00BFFEE700F099FA08B96E
:103C0000059808B9012000E0002050B900BF5020FD
:103C100080F31188BFF34F8FBFF36F8F00BF00BFDA
:103C2000FEE700BFFFF72EFCA06BE16B884201D3DB
:103C3000022D28D12A4641462046FEF738FF074686
:103C4000606A08B9012000E0002068B904F124008E
:103C500000F078FB88B14FF0805032490860BFF324
:103C60004F8FBFF36F8F08E03FB14FF080502D4969
:103C70000860BFF34F8FBFF36F8FFFF72DFC01205C
:103C800007B0BDE8F083059818B9FFF725FC0020C0
:103C9000F6E7B9F1000F04D101A8FFF73FFD4FF09F
:103CA0000109FFF719FCFFF7E3FDFFF7EBFB94F9C0
:103CB0004400401C10B9002084F8440094F94500E9
:103CC000401C10B9002084F84500FFF705FC05A949
:103CD00001A800F059F9F0B92046FFF7C6F8A0B1E5
:103CE00004F110000599FFF72BFD2046FFF779FA44
:103CF00000F074FB002895D14FF08050094908600E
:103D0000BFF34F8FBFF36F8F8CE72046FFF769FA41
:103D100000F064FB86E72046FFF763FA00F05EFBE5
:103D20000020ADE704ED00E02DE9F05F07468A468C
:103D300090461E463C4654B900BF502080F311887F
:103D4000BFF34F8FBFF36F8F00BF00BFFEE7BAF125
:103D5000000F01D1206C08B9012000E0002050B90B
:103D600000BF502080F31188BFF34F8FBFF36F8FD8
:103D700000BF00BFFEE7022E02D1E06B012801D197
:103D8000012000E0002050B900BF502080F31188CE
:103D9000BFF34F8FBFF36F8F00BF00BFFEE7FFF78A
:103DA00017FC00BF5021EFF3118081F31188BFF39E
:103DB0004F8FBFF36F8F00BF0546A06BE16B88424A
:103DC00001D3022E23D194F945B032465146204604
:103DD000FEF76DFE0BF1010088B9606A08B9012099
:103DE00000E0002080B904F1240000F0ABFA58B1E3
:103DF000B8F1000F08D00120C8F8000004E00BF172
:103E0000010040B284F845004FF0010901E04FF095
:103E1000000900BF85F3118800BF4846BDE8F09F48
:103E20002DE9F74183B005460E464FF000082C46B9
:103E300054B900BF502080F31188BFF34F8FBFF3F8
:103E40006F8F00BF00BFFEE70EB9206C08B90120DC
:103E500000E0002050B900BF502080F31188BFF36C
:103E60004F8FBFF36F8F00BF00BFFEE700F060F918
:103E700008B9059808B9012000E0002050B900BF3A
:103E8000502080F31188BFF34F8FBFF36F8F00BFB7
:103E900000BFFEE700BFFFF7F5FAA76BF7B13146A9
:103EA0002046FEF7EFFD781EA063206908B90120C7
:103EB00000E0002060B904F1100000F043FA38B1CE
:103EC0004FF080502F490860BFF34F8FBFF36F8FC3
:103ED000FFF702FB012006B0BDE8F081059818B994
:103EE000FFF7FAFA0020F6E7B8F1000F04D101A8B5
:103EF000FFF714FC4FF00108FFF7EEFAFFF7B8FCEC
:103F0000FFF7C0FA94F94400401C10B9002084F86F
:103F1000440094F94500401C10B9002084F8450085
:103F2000FFF7DAFA05A901A800F02EF8F0B920464B
:103F3000FEF78EFFA0B104F124000599FFF700FC05
:103F40002046FFF74EF900F049FA0028A3D14FF0C0
:103F500080500C490860BFF34F8FBFF36F8F9AE713
:103F60002046FFF73EF900F039FA94E72046FFF7C4
:103F700038F900F033FA2046FEF76AFF00288AD0AD
:103F80000020A8E704ED00E070B505460C4655B9E1
:103F900000BF502080F31188BFF34F8FBFF36F8FA6
:103FA00000BF00BFFEE754B900BF502080F3118866
:103FB000BFF34F8FBFF36F8F00BF00BFFEE7FFF768
:103FC00061FA124802686868131A2068401C08B930
:103FD000002617E00E4928680968884204D06868FE
:103FE000904201D801260DE02068984207D9206848
:103FF000C01A20602846FFF791FB002602E000204F
:1040000020600126FFF768FA304670BD40000020AE
:10401000540000202DE9FF4F85B0804689461746A1
:10402000DDE912ABB800FFF71BF9064656B15C207C
:10403000FFF716F904460CB1266304E03046FFF79B
:1040400069FA00E000248CB1002084F85900CDE921
:1040500000ABCDE902403A4649464046089BFEF790
:1040600008FE2046FEF754FC012501E04FF0FF3525
:10407000284609B0BDE8F08F2DE9F04F85B007461E
:10408000884691469A46DDE90EB6109C0EB1012095
:1040900000E0002050B900BF502080F31188BFF32A
:1040A0004F8FBFF36F8F00BF00BFFEE70CB1012041
:1040B00000E0002050B900BF502080F31188BFF30A
:1040C0004F8FBFF36F8F00BF00BFFEE75C200390F0
:1040D00003985C2801D1012000E0002050B900BF06
:1040E000502080F31188BFF34F8FBFF36F8F00BF55
:1040F00000BFFEE7B4B1AEB125462C462E630220C8
:1041000085F85900002004A953464A46CDE900B17C
:10411000CDE9025041463846FEF7ABFD2846FEF792
:10412000F7FB01E000200490049805B0BDE8F08F93
:104130000549096809B9012005E00449096809B978
:10414000022000E0002070474800002064000020AA
:104150000149086870470000400000202DE9F04147
:104160004FF0000843480068002876D142480068B4
:10417000451C4148056015BB40480068006808B907
:10418000012000E0002050B900BF502080F31188CA
:10419000BFF34F8FBFF36F8F00BF00BFFEE73748FD
:1041A0000768374800683549086035480760354872
:1041B0000068401C33490860FEF766FF00BF3248C4
:1041C000006885423BD300BF2C480068006808B9EE
:1041D000012000E0002020B14FF0FF302A490860A4
:1041E0002CE026480068C068C4686668B54202D200
:1041F0002548066022E0201DFFF7E2F8A06A18B10A
:1042000004F11800FFF7DCF82049E06A09688842E9
:1042100002D91E49E06A0860E16A01EB81011C4A8B
:1042200002EB8100211DFFF721F91A49E06A0968B4
:10423000C96A8842C8D34FF00108C5E700BF1548D6
:104240000068C06A00EB8000114951F82000012885
:1042500001D94FF0010805E0FFE70F480068401C56
:104260000D4908600D48006808B14FF0010840464C
:10427000BDE8F081640000204000002030000020F4
:1042800034000020540000205C0000204400002086
:10429000200200202C0000204C00002050000020B4
:1042A00070B505462C460026002D43D022480068F4
:1042B000844201D1012000E0002050B900BF50200D
:1042C00080F31188BFF34F8FBFF36F8F00BF00BF24
:1042D000FEE7206D50B900BF502080F31188BFF376
:1042E0004F8FBFF36F8F00BF00BFFEE7206D401EF2
:1042F0002065E16CE06A88421CD0206DD0B9201D99
:10430000FFF75EF8E06CE062E06AC0F13800A0619F
:104310000A49E06A0968884202D90849E06A0860E7
:10432000E16A01EB8101064A02EB8100211DFFF7E2
:104330009DF80126304670BD2C000020440000206E
:104340002002002070B50646F068C46854B900BF6A
:10435000502080F31188BFF34F8FBFF36F8F00BFE2
:1043600000BFFEE704F11800FFF72AF815480068BF
:10437000A0B9201DFFF724F81349E06A09688842B4
:1043800002D91149E06A0860E16A01EB81010F4A34
:1043900002EB8100211DFFF769F804E004F1180128
:1043A0000B48FFF763F80B49E06A0968C96A88425D
:1043B00004D9012501200849086000E000252846AD
:1043C00070BD000064000020440000202002002096
:1043D000A80600202C0000205000002070B500240A
:1043E00000263648006850B900BF502080F311887D
:1043F000BFF34F8FBFF36F8F00BF00BFFEE7FFF724
:1044000041F82E480068401E2C49086008460068A4
:1044100000284ED12A48006800284AD023E02948C5
:10442000C068C46804F11800FEF7CAFF201DFEF73B
:10443000C7FF2549E06A0968884202D92249E06A33
:104440000860E16A01EB8101204A02EB8100211D35
:10445000FFF70CF81E49E06A0968C96A884202D36E
:1044600001201C4908601748006808B9012000E0D5
:1044700000200028D3D00CB1FEF706FE16480568D0
:1044800065B100BFFFF76AFE10B101201149086055
:104490006D1E002DF6D100200F4908600D48006800
:1044A00038B1012630070D490860BFF34F8FBFF3C5
:1044B0006F8FFFF711F8304670BD000064000020D8
:1044C0003C000020A806002044000020200200201C
:1044D0002C000020500000204C00002004ED00E0E3
:1044E00010B586B00024FEF76FFA16480068D0B108
:1044F00000200590049003AA04A905A8FEF780FFF8
:104500000222DDE904100023CDE9002102900EA172
:104510000F48039AFFF7B0FD0E490860084600688F
:1045200000B1012400BF54B900BF502080F31188AE
:10453000BFF34F8FBFF36F8F00BF00BFFEE7204672
:1045400006B010BD70000020546D722053766300D9
:10455000C9310008740000202DE9FF4704460D46CC
:1045600016461F46DDF830804FF0000954B900BFF1
:10457000502080F31188BFF34F8FBFF36F8F00BFC0
:1045800000BFFEE71448006810B30095019602943E
:10459000062D15DAFFF7CCFD022808D1002342468C
:1045A00069460D480068FFF7EBFA814610E00023EA
:1045B0001A46694608480068FFF7E2FA814607E0B4
:1045C00000233A46694604480068FFF7ADFB814680
:1045D000484604B0BDE8F08770000020A8460008F7
:1045E00000000000000000000000000000000000CB
:1045F00000020000180000000000000000000000A1
:1046000084460008000000000000000000000000D8
:104610000000000000020000080000000000000090
:1046200000000000904600080000000000000000AC
:104630000000000000000000000200000800000070
:1046400000000000000000009C4600080000000080
:104650000000000000000000000000000002000058
:104660000800000000000000000000000000000042
:104670000000000001020304060708090000000012
:10468000010203046D795461736B30320000000045
:104690006D795461736B3033000000006D795461A3
:1046A000736B30340000000064656661756C74548F
:1046B00061736B00D446000800000020D0000000A9
:1046C0006C010008A4470008D0000020482000002A
:1046D0008801000800000000000000000000000049
:1046E00000000000000000000000000000000000CA
:1046F0000000000010000000010000000024F40091
:1047000000000000000000000000000000000000A9
:104710000000000000000000000000000000000099
:104720000000000000000000000000000000000089
:104730000000000000000000000000000000000079
:104740000000000000000000000000000000000069
:104750000000000000000000000000000000000059
:10476000000000000000000000000000AAAAAAAAA1
:104770000000000000000000000000000000000039
:104780000000000000000000000000000000000029
:104790000000000000000000010000000000000018
:0447A00064000000B1
:0400000508000131BD
:00000001FF
